:020000040800F2
:1000000000500020311000086D0A0008750A000831
:100010007D0A0008850A00088D0A0008000000001B
:10002000000000000000000000000000950A000829
:10003000A10A000800000000AD0A0008B90A000883
:10004000791000087910000879100008791000086C
:10005000791000087910000879100008791000085C
:10006000791000087910000879100008791000084C
:10007000791000087910000879100008791000083C
:10008000791000087910000879100008791000082C
:10009000C50A0008791000087910000879100008D6
:1000A000791000087910000879100008791000080C
:1000B000D90A0008F10D000879100008791000082D
:1000C00079100008791000087910000879100008EC
:1000D00079100008791000087910000879100008DC
:1000E000791000087910000879100008000000005D
:1000F0000000000000000000000000000000000000
:0C01000000000000000000005FF808F1A3
:10010C0010B5054C237833B9044B13B10448AFF345
:10011C0000800123237010BD580100200000000056
:10012C00F491000808B5034B1BB103490348AFF326
:10013C00008008BD000000005C010020F491000864
:10014C0080B584B000AF3B4600221A605A609A60BA
:10015C0008233B6001237B600023BB603B461946B0
:10016C000D4801F0ABFA0346002B01D000F0CEFA9B
:10017C00094801F0B7F86421074801F08DF90648E9
:10018C0001F090FA0346FB81034801F059F9FB8911
:10019C0018461037BD4680BD7401002080B584B070
:1001AC0000AF3B4600221A605A609A6009233B60FC
:1001BC0001237B600023BB603B4619460D4801F0D0
:1001CC007DFA0346002B01D000F0A0FA094801F09B
:1001DC0089F86421074801F05FF9064801F062FADA
:1001EC000346FB81034801F02BF9FB8918461037B5
:1001FC00BD4680BDA401002080B582B000AF00F0E8
:10020C0037FF00F0ABF800F02FFA08F0E3FA00F03B
:10021C0003F900F08DF900F04DF900F0D7F91E202C
:10022C0000F07AFA0023FB710CE0FFF789FF03461C
:10023C001A463E4B1B8813449AB23C4B1A80FB79EE
:10024C000133FB71FB790F2BEFD9384B1B881B0942
:10025C009BB21A461346DB019B1A354A82FB0312EA
:10026C001A44D212DB17D31A9AB2324B1A802F4B84
:10027C0000221A802F4B1A882F4B1A802D4B1B886B
:10028C00DAB22E4BDA7004222C492D4807F09BF978
:10029C000023BB710CE0FFF781FF03461A46294B84
:1002AC001B8813449AB2274B1A80BB790133BB715C
:1002BC00BB790F2BEFD9234B1B881B099BB21A461A
:1002CC001346DB019B1A1A4A82FB03121A44D21200
:1002DC00DB17D31A9AB21C4B1A801A4B00221A80C5
:1002EC00194B1A88194B1A80174B1B88DAB2184B0A
:1002FC00DA7004221649124807F065F90022002131
:10030C001C2001F046FC1C2001F05FFC114804F09D
:10031C002BF9002200211D2001F03BFC1D2001F0D7
:10032C0054FC0D4804F020F900BFFDE778020020D2
:10033C008100088076020020740200200C0000204E
:10034C00CC0200207E0200207C0200207A020020D9
:10035C0010000020D40100201C02002080B594B0B5
:10036C0000AF07F1280328220021184608F0B0FE40
:10037C0007F1140300221A605A609A60DA601A615D
:10038C003B1D00221A605A609A60DA600123BB623E
:10039C004FF48033FB6200233B630123BB630223D6
:1003AC007B644FF48033BB644FF48013FB6407F120
:1003BC002803184603F020FB0346002B01D000F065
:1003CC00A5F90F237B610223BB610023FB614FF472
:1003DC0080633B6200237B6207F114030121184602
:1003EC0003F08CFD0346002B01D000F08FF9122393
:1003FC007B604FF48043FB604FF480033B613B1DFB
:10040C00184603F0F5FE0346002B01D000F07EF9F0
:10041C0000BF5037BD4680BD80B584B000AF3B1DDA
:10042C0000221A605A609A60204B214A1A601F4BB6
:10043C004FF480729A601D4B00221A731B4B0022E2
:10044C001A751A4B4FF46022DA61184B00225A606D
:10045C00164B02221A61154800F06CFE0346002B65
:10046C0001D000F053F908237B600123BB6000230B
:10047C00FB603B1D19460D4801F020F90346002B8B
:10048C0001D000F043F900237B600223BB603B1DCD
:10049C001946064801F012F90346002B01D000F072
:1004AC0035F900BF1037BD4680BD00BF7401002078
:1004BC000024014080B584B000AF3B1D00221A60BF
:1004CC005A609A60184B194A1A60174B00229A60AE
:1004DC00154B00221A73144B00221A75124B4FF451
:1004EC006022DA61104B00225A600F4B01221A6114
:1004FC000D4800F01FFE0346002B01D000F006F95A
:10050C0009237B600123BB600023FB603B1D194664
:10051C00054801F0D3F80346002B01D000F0F6F8A3
:10052C0000BF1037BD4680BDA4010020002801404B
:10053C0080B586B000AF07F1080300221A605A603C
:10054C009A60DA603B4600221A605A601E4B4FF0EC
:10055C0080421A601C4B40F267125A601A4B002200
:10056C009A60194B40F21F32DA60174B00221A6165
:10057C00154B00229A61144803F0A6FF0346002B8A
:10058C0001D000F0C3F84FF48053BB6007F10803AF
:10059C0019460D4804F02AF90346002B01D000F04F
:1005AC00B5F800233B6000237B603B4619460648A8
:1005BC0004F014FB0346002B01D000F0A7F800BF99
:1005CC001837BD4680BD00BFD401002080B586B071
:1005DC0000AF07F1080300221A605A609A60DA60D3
:1005EC003B4600221A605A601D4B1E4A1A601C4B77
:1005FC0040F207725A601A4B00229A60184B40F274
:10060C001F32DA60164B00221A61154B00229A61D8
:10061C00134803F059FF0346002B01D000F076F885
:10062C004FF48053BB6007F1080319460C4804F0E3
:10063C00DDF80346002B01D000F068F800233B6086
:10064C0000237B603B461946054804F0C7FA034675
:10065C00002B01D000F05AF800BF1837BD4680BD02
:10066C001C0200200004004080B588B000AF07F1E8
:10067C00100300221A605A609A60DA60204B9B6962
:10068C001F4A43F0200393611D4B9B6903F0200329
:10069C00FB60FB681A4B9B69194A43F00403936196
:1006AC00174B9B6903F00403BB60BB68144B9B693D
:1006BC00134A43F008039361114B9B6903F0080341
:1006CC007B607B6848F2FC033B6100237B61012368
:1006DC00BB6107F1100319460A4801F091FA4FF477
:1006EC00FC733B6100237B610123BB6107F11003A9
:1006FC001946054801F084FA00BF2037BD4680BD7D
:10070C000010024000080140000C014080B400AF12
:10071C0072B600BF00BFFDE790B583B000AF0346D3
:10072C00FB80082008F016FC03461A46134B1A608F
:10073C00124B1C68082008F00DFC0346636008206F
:10074C0008F008FC03461A460D4B1A600C4B1C684B
:10075C00082008F0FFFB03466360094B00221A6077
:10076C00074B1B68054A1360064AFB881380064B2F
:10077C0000221A8000BF0C37BD4690BD64020020D9
:10078C00680200206C0200206E02002080B584B04C
:10079C0000AF78607B68002B01D1002332E0082089
:1007AC0008F0D8FB0346FB60FB687A6812681A6095
:1007BC00FB6800225A60154B1B68002B03D0144BAE
:1007CC001B88002B07D1134AFB681360114B1B6865
:1007DC000E4A13600FE00E4B1A880F4B1B889A427F
:1007EC0007D20C4B1B68FA685A600A4AFB68136004
:1007FC0001E0002306E0064B1B8801339AB2044B40
:10080C001A80012318461037BD4680BD64020020B3
:10081C006E020020680200206C02002080B582B0BD
:10082C0000AF154B1B68002B03D0144B1B88002BFF
:10083C0001D100231BE0104B1B687B60042008F0E7
:10084C0089FB03463B607B681B681A463B681A6051
:10085C00094B1B685B68084A1360084B1B88013BFB
:10086C009AB2064B1A80786808F07CFB3B681846F5
:10087C000837BD4680BD00BF640200206E02002018
:10088C0080B485B000AF154B9B69144A43F001034B
:10089C009361124B9B6903F00103BB60BB680F4B68
:1008AC00DB690E4A43F08053D3610C4BDB6903F0D8
:1008BC0080537B607B680A4B5B68FB60FB6823F0B2
:1008CC00E063FB60FB6843F00073FB60044AFB6869
:1008DC00536000BF1437BD4680BC70470010024007
:1008EC000000014080B58CB000AF786007F12003A8
:1008FC0000221A605A609A60DA607B681B68334A7F
:10090C00934238D1324B9B69314A43F40073936163
:10091C002F4B9B6903F40073FB61FB692C4B9B69A8
:10092C002B4A43F004039361294B9B6903F00403A6
:10093C00BB61BB69264B9B69254A43F00803936155
:10094C00234B9B6903F008037B617B6901233B62AA
:10095C0003237B6207F1200319461E4801F050F96E
:10096C0001233B6203237B6207F1200319461A48DB
:10097C0001F046F926E07B681B68184A934221D1A6
:10098C00134B9B69124A43F480639361104B9B6930
:10099C0003F480633B613B690D4B9B690C4A43F04C
:1009AC00080393610A4B9B6903F00803FB60FB6827
:1009BC0002233B6203237B6207F12003194606489E
:1009CC0001F01EF900BF3037BD4680BD0024014048
:1009DC000010024000080140000C014000280140BA
:1009EC0080B584B000AF78607B681B68B3F1804F32
:1009FC0014D1194BDB69184A43F00103D361164B30
:100A0C00DB6903F00103FB60FB68002200211C2062
:100A1C0001F0BFF81C2001F0D8F818E07B681B68C7
:100A2C000E4A934213D10C4BDB690B4A43F0020381
:100A3C00D361094BDB6903F00203BB60BB68002286
:100A4C0000211D2001F0A5F81D2001F0BEF800BF0B
:100A5C001037BD4680BD00BF0010024000040040AE
:100A6C0080B400AF00BFFDE780B400AF00BFFDE76E
:100A7C0080B400AF00BFFDE780B400AF00BFFDE75E
:100A8C0080B400AF00BFFDE780B400AF00BFBD462F
:100A9C0080BC704780B400AF00BFBD4680BC7047BF
:100AAC0080B400AF00BFBD4680BC704780B500AFBE
:100ABC0000F024FB00BF80BD80B500AF024801F000
:100ACC0056FB00BF80BD00BF9007002080B582B0F0
:100ADC0000AFFFF7A3FE78607B68002B0BD000BF44
:100AEC00A74806F063FD0346002BF9D10422796870
:100AFC00A34806F068FD0421A24801F005FA03465C
:100B0C00002B11D1A04B1B7883F00103DBB2002B1F
:100B1C0000F058819C4B01221A70302000F010FA22
:100B2C009A48FFF733FE4DE10821964801F0ECF9A5
:100B3C000346002B11D1944B1B7883F00103DBB2DD
:100B4C00002B00F03F81904B01221A70312000F0F5
:100B5C00F7F98E48FFF71AFE34E11021894801F0AD
:100B6C00D3F90346002B11D1874B1B7883F001037B
:100B7C00DBB2002B00F02681834B01221A7032204D
:100B8C0000F0DEF98148FFF701FE1BE120217D48D2
:100B9C0001F0BAF90346002B11D17B4B1B7883F083
:100BAC000103DBB2002B00F00D81774B01221A7090
:100BBC00332000F0C5F97548FFF7E8FD02E140214C
:100BCC00704801F0A1F90346002B11D16E4B1B7834
:100BDC0083F00103DBB2002B00F0F4806A4B01229E
:100BEC001A70342000F0ACF96848FFF7CFFDE9E04B
:100BFC008021644801F088F90346002B11D1624B27
:100C0C001B7883F00103DBB2002B00F0DB805E4B22
:100C1C0001221A70352000F093F95C48FFF7B6FDFD
:100C2C00D0E04FF40041574801F06EF90346002B19
:100C3C0011D1554B1B7883F00103DBB2002B00F074
:100C4C00C180514B01221A70362000F079F94F48BF
:100C5C00FFF79CFDB6E008214D4801F055F903461D
:100C6C00002B11D1484B1B7883F00103DBB2002B16
:100C7C0000F0A880444B01221A70372000F060F974
:100C8C004248FFF783FD9DE01021414801F03CF9FB
:100C9C000346002B11D13C4B1B7883F00103DBB2D4
:100CAC00002B00F08F80384B01221A70382000F096
:100CBC0047F93648FFF76AFD84E02021344801F0FB
:100CCC0023F90346002B10D12F4B1B7883F0010323
:100CDC00DBB2002B76D02C4B01221A70392000F09D
:100CEC002FF92A48FFF752FD6CE04021284801F00B
:100CFC000BF90346002B10D1234B1B7883F0010317
:100D0C00DBB2002B5ED0204B01221A703A2000F08F
:100D1C0017F91E48FFF73AFD54E080211C4801F0FA
:100D2C00F3F80346002B10D1174B1B7883F001030B
:100D3C00DBB2002B46D0144B01221A703B2000F082
:100D4C00FFF81248FFF722FD3CE04FF48071104889
:100D5C0001F0DAF80346002B20D10B4B1B7883F003
:100D6C000103DBB2002B2DD0074B01221A70094B6B
:100D7C0001221A7000F0F8F80748FFF707FD21E090
:100D8C00CC0200200008014072020020000000206C
:100D9C00000C014070020020080000200D4B1B7855
:100DAC00002B09D00C4B1B7883F00103DBB2002B1A
:100DBC0002D00A48FFF7EAFC064B00221A70064BD9
:100DCC0000221A70064803F021FC00BF0837BD460C
:100DDC0080BD00BF720200207002002004000020C1
:100DEC00D401002080B582B000AF0023FB710DE070
:100DFC00FFF7A6F90346DB439AB2464B1B88134414
:100E0C009AB2444B1A80FB790133FB71FB790F2B9F
:100E1C00EED9404B1B881B099BB21A461346DB01CB
:100E2C009B1A3D4A82FB03121A44D212DB17D31AC7
:100E3C009AB23A4B1A80374B00221A80374B1B88D8
:100E4C001A46374B1B88033B9A4207DB334B1B88F4
:100E5C001A46334B1B8803339A420DDD2F4B1A88ED
:100E6C002F4B1A802D4B1B88DAB22E4BDA700422D2
:100E7C002C492D4806F0A7FB0023BB710DE0FFF7B2
:100E8C008DF90346DB439AB2284B1B8813449AB264
:100E9C00264B1A80BB790133BB71BB790F2BEED972
:100EAC00224B1B881B099BB21A461346DB019B1A6B
:100EBC00194A82FB03121A44D212DB17D31A9AB2C4
:100ECC001B4B1A80194B00221A80194B1B881A468F
:100EDC00184B1B88033B9A4207DB154B1B881A46A1
:100EEC00144B1B8803339A420DDD114B1A88114B9E
:100EFC001A800F4B1B88DAB20F4BDA7004220E49A2
:100F0C00094806F060FB0D4803F080FB00BF083772
:100F1C00BD4680BD7802002081000880760200204A
:100F2C00740200200C000020CC0200207E02002065
:100F3C007C0200207A020020100000201C020020FD
:100F4C0080B483B000AF0346FB71054AFB79937004
:100F5C00044AFB79937000BF0C37BD4680BC7047C8
:100F6C00000000200400002080B400AF0D4B1B7863
:100F7C00002B14BF01230023DBB283F00103DBB28F
:100F8C0003F00103DAB2074B1A70064B1B78002BE7
:100F9C0001D07F2200E00022034BDA7000BFBD4677
:100FAC0080BC7047710200200800002080B586B01C
:100FBC0000AF7860144A154BD31A7B617B693B6197
:100FCC00134B1B68002B02D1114B124A1A60104BA9
:100FDC001A687B6813443A699A4207D208F090F871
:100FEC0003460C221A604FF0FF3309E0084B1B68D4
:100FFC00FB60074B1A687B681344054A1360FB6857
:10100C0018461837BD4680BD005000200004000073
:10101C0080020020C80B002080B400AF00BFBD468A
:10102C0080BC7047FFF7F8FF0B480C490C4A0023B3
:10103C0002E0D458C4500433C4188C42F9D3094A82
:10104C00094C002301E013600432A242FBD308F0E8
:10105C005DF8FFF7D1F87047000000205801002020
:10106C009892000858010020C40B0020FEE70000F5
:10107C0080B500AF084B1B68074A43F010031360A0
:10108C00032000F07BFD0F2000F008F8FFF7F8FBC1
:10109C000023184680BD00BF0020024080B582B0FE
:1010AC0000AF7860124B1A68124B1B7819464FF43C
:1010BC007A73B3FBF1F3B2FBF3F3184600F093FD34
:1010CC000346002B01D001230EE07B680F2B0AD8BE
:1010DC00002279684FF0FF3000F05BFD064A7B6818
:1010EC001360002300E0012318460837BD4680BD7D
:1010FC00140000201C0000201800002080B400AF59
:10110C00054B1B781A46054B1B681344034A1360A6
:10111C0000BFBD4680BC70471C000020840200202C
:10112C0080B400AF024B1B681846BD4680BC7047AC
:10113C008402002080B586B000AF78600023FB7578
:10114C0000233B610023BB600023FB607B68002B0A
:10115C0001D10123BEE07B689B68002B7B689B6AF6
:10116C00002B09D17B680022DA627B68002283F8AD
:10117C0024207868FFF7B6FB786800F0F1FB034693
:10118C00FB757B689B6A03F01003002B40F0998081
:10119C00FB7D002B40F095807B689B6A23F4885381
:1011AC0023F0020343F002027B689A627B685A6860
:1011BC007B68DB691A437B681B7B5B001343BA6853
:1011CC001343BB607B689B68B3F5807F03D07B685F
:1011DC009B68012B02D14FF4807300E000233A6925
:1011EC0013433B617B681B7D012B19D17B681B7BF7
:1011FC00002B09D17B689B69013B5A033B69134364
:10120C0043F400633B610BE07B689B6A43F0200274
:10121C007B689A627B68DB6A43F001027B68DA6266
:10122C007B681B685B6823F469417B681B683A69BF
:10123C000A435A607B681B689A68284B13407A688B
:10124C001268B9680B4393607B689B68B3F5807F29
:10125C0003D07B689B68012B04D17B681B69013B25
:10126C001B05FB607B681B68DB6A23F470017B68E1
:10127C001B68FA680A43DA627B681B689A68184B29
:10128C001340BA689A420BD17B680022DA627B6801
:10129C009B6A23F0030343F001027B689A6218E017
:1012AC007B689B6A23F0120343F010027B689A62FE
:1012BC007B68DB6A43F001027B68DA620123FB7511
:1012CC0007E07B689B6A43F010027B689A620123FB
:1012DC00FB75FB7D18461837BD4680BDFDF7E1FF59
:1012EC00FE0E1FFF80B584B000AF78600023FB7347
:1012FC007B6893F82430012B01D1022398E07B68A2
:10130C00012283F82420786800F0D0FA0346FB739E
:10131C00FB7B002B40F087807B689B6A23F4407337
:10132C0023F0010343F480727B689A627B681B682C
:10133C00414A934205D1414B5B6803F47023002B67
:10134C0015D17B689B6A23F480127B689A627B6858
:10135C001B685B6803F48063002B26D07B689B6A58
:10136C0023F4405343F480527B689A621DE07B68FF
:10137C009B6A43F480127B689A627B681B682F4AD5
:10138C00934204D07B681B682B4A93420DD12B4BA4
:10139C005B6803F48063002B07D07B689B6A23F4A3
:1013AC00405343F480527B689A627B689B6A03F4D7
:1013BC008053002B06D07B68DB6A23F006027B6827
:1013CC00DA6202E07B680022DA627B68002283F832
:1013DC0024207B681B686FF002021A607B681B6814
:1013EC009B6803F46023B3F5602F13D17B681B68F3
:1013FC00114A934205D1114B5B6803F47023002B07
:10140C0008D17B681B689A687B681B6842F4A00251
:10141C009A600CE07B681B689A687B681B6842F4D6
:10142C0080129A6003E07B68002283F82420FB7B07
:10143C0018461037BD4680BD0028014000240140ED
:10144C0080B584B000AF78600023FB737B6893F8A1
:10145C002430012B01D102231AE07B68012283F88E
:10146C002420786800F07CFA0346FB73FB7B002B8E
:10147C0009D17B689B6A23F4885323F0010343F062
:10148C0001027B689A627B68002283F82420FB7B34
:10149C0018461037BD4680BD90B587B000AF786058
:1014AC00396000237B610023FB6000233B61FFF765
:1014BC0037FE78617B681B689B6803F48073002B94
:1014CC000BD07B689B6A43F020027B689A627B6836
:1014DC00002283F824200123D3E07B681B685B681F
:1014EC0003F48073002B31D17B681B68DB6A03F437
:1014FC007003002B2AD121E03B68B3F1FF3F1DD0D4
:10150C003B68002B07D0FFF70BFE02467B69D31A12
:10151C003A689A4212D27B681B681B6803F002037C
:10152C00002B0BD17B689B6A43F004027B689A62A8
:10153C007B68002283F824200323A2E07B681B68CD
:10154C001B6803F00203002BD6D070E04F4B1C68D5
:10155C00022002F003FF0346B4FBF3F27B681B6826
:10156C0019694B4B0B40002B18D17B681B68D96851
:10157C00484B0B40002B11D17B681B681969464BFB
:10158C000B40002B08D17B681B68D968434B0B4080
:10159C00002B01D1142320E029231EE07B681B685B
:1015AC0019693D4B0B40002B06D17B681B68D96831
:1015BC003A4B0B40002B0DD07B681B681969384BDC
:1015CC000B40002B08D17B681B68D968344B0B404F
:1015DC00002B01D1542300E0FC2302FB03F33B61FD
:1015EC0021E03B68B3F1FF3F1AD03B68002B07D0DA
:1015FC00FFF796FD02467B69D31A3A689A420FD2DE
:10160C00FB683A699A420BD97B689B6A43F00402E7
:10161C007B689A627B68002283F82420032330E0E5
:10162C00FB680133FB60FB683A699A42D9D87B6846
:10163C001B686FF012021A607B689B6A43F400729D
:10164C007B689A627B681B689B6803F46023B3F524
:10165C00602F15D17B681B7B002B11D17B689B6A9B
:10166C0023F480727B689A627B689B6A03F48053D4
:10167C00002B05D17B689B6A43F001027B689A6260
:10168C00002318461C37BD4690BD00BF1400002037
:10169C00244992242449920092244912922449000C
:1016AC004992240080B483B000AF78607B681B68DB
:1016BC00DB6C18460C37BD4680BC704780B485B0D7
:1016CC0000AF786039600023FB730023BB607B683C
:1016DC0093F82430012B01D10223DCE07B6801223A
:1016EC0083F824203B685B68062B1CD87B681B683E
:1016FC00596B3B685A6813469B001344053B1F22E9
:10170C0002FA03F3DB4319403B6818683B685A68DC
:10171C0013469B001344053B00FA03F27B681B68DD
:10172C000A435A633CE03B685B680C2B1CD87B6813
:10173C001B68196B3B685A6813469B001344233B88
:10174C001F2202FA03F3DB4319403B6818683B681D
:10175C005A6813469B001344233B00FA03F27B6840
:10176C001B680A431A631BE07B681B68D96A3B68D9
:10177C005A6813469B001344413B1F2202FA03F3A1
:10178C00DB4319403B6818683B685A6813469B005A
:10179C001344413B00FA03F27B681B680A43DA628C
:1017AC003B681B68092B1CD97B681B68D9683B6894
:1017BC001A6813465B0013441E3B072202FA03F31C
:1017CC00DB4319403B6898683B681A6813465B001A
:1017DC0013441E3B00FA03F27B681B680A43DA6071
:1017EC0019E07B681B6819693B681A6813465B0033
:1017FC001344072202FA03F3DB4319403B68986851
:10180C003B681A6813465B00134400FA03F27B68CA
:10181C001B680A431A613B681B68102B03D03B689A
:10182C001B68112B32D17B681B681D4A934225D152
:10183C007B681B689B6803F40003002B26D17B6834
:10184C001B689A687B681B6842F400029A603B68CC
:10185C001B68102B1AD1134B1B68134AA2FB0323D2
:10186C009A0C13469B0013445B00BB6002E0BB6800
:10187C00013BBB60BB68002BF9D107E07B689B6A1E
:10188C0043F020027B689A620123FB737B68002281
:10189C0083F82420FB7B18461437BD4680BC704768
:1018AC00002401401400002083DE1B4380B584B06B
:1018BC0000AF78600023FB600023BB607B681B6873
:1018CC009B6803F00103012B40D07B681B689A686E
:1018DC007B681B6842F001029A601F4B1B681F4A11
:1018EC00A2FB03239B0CBB6002E0BB68013BBB600B
:1018FC00BB68002BF9D1FFF713FCF8601FE0FFF772
:10190C000FFC0246FB68D31A022B18D97B681B68A4
:10191C009B6803F00103012B11D07B689B6A43F099
:10192C0010027B689A627B68DB6A43F001027B6879
:10193C00DA627B68002283F82420012307E07B68AD
:10194C001B689B6803F00103012BD8D100231846B8
:10195C001037BD4680BD00BF1400002083DE1B4342
:10196C0080B584B000AF78600023FB607B681B6897
:10197C009B6803F00103012B2ED17B681B689A68CE
:10198C007B681B6822F001029A60FFF7C9FBF860C4
:10199C001BE0FFF7C5FB0246FB68D31A022B14D9D8
:1019AC007B681B689B6803F00103012B0DD17B68DE
:1019BC009B6A43F010027B689A627B68DB6A43F097
:1019CC0001027B68DA62012307E07B681B689B6875
:1019DC0003F00103012BDCD0002318461037BD4661
:1019EC0080BD000080B485B000AF78607B6803F0E8
:1019FC000703FB600C4BDB68BB60BA684FF6FF0358
:101A0C001340BB60FB681A02BB68134343F0BF630F
:101A1C0043F40033BB60044ABB68D36000BF143787
:101A2C00BD4680BC704700BF00ED00E080B400AF45
:101A3C00044BDB681B0A03F007031846BD4680BC49
:101A4C00704700BF00ED00E080B483B000AF0346E8
:101A5C00FB7197F90730002B0BDBFB7903F01F02AE
:101A6C00064997F907305B09012000FA02F241F8A8
:101A7C00232000BF0C37BD4680BC704700E100E05E
:101A8C0080B483B000AF03463960FB7197F907301F
:101A9C00002B0ADB3B68DAB20C4997F907301201CC
:101AAC00D2B20B4483F800230AE03B68DAB208494F
:101ABC00FB7903F00F03043B1201D2B20B441A76EC
:101ACC0000BF0C37BD4680BC704700BF00E100E092
:101ADC0000ED00E080B489B000AFF860B9607A60C6
:101AEC00FB6803F00703FB61FB69C3F10703042BDD
:101AFC0028BF0423BB61FB690433062B02D9FB69A5
:101B0C00033B00E000237B614FF0FF32BB6902FA1C
:101B1C0003F3DA43BB681A407B699A404FF0FF31FC
:101B2C007B6901FA03F3D9437B680B4013431846D6
:101B3C002437BD4680BC704780B582B000AF78605A
:101B4C007B68013BB3F1807F01D301230FE00A4A8C
:101B5C007B68013B53600F214FF0FF30FFF790FF84
:101B6C00054B00229A60044B07221A60002318468A
:101B7C000837BD4680BD00BF10E000E080B582B0E4
:101B8C0000AF78607868FFF72DFF00BF0837BD46BF
:101B9C0080BD80B586B000AF0346B9607A60FB7338
:101BAC0000237B61FFF742FF78617A68B968786936
:101BBC00FFF790FF024697F90F3011461846FFF7D2
:101BCC005FFF00BF1837BD4680BD80B582B000AF47
:101BDC000346FB7197F907301846FFF735FF00BF36
:101BEC000837BD4680BD80B582B000AF786078689C
:101BFC00FFF7A2FF034618460837BD4680BD00001C
:101C0C0080B48BB000AF7860396000237B62002316
:101C1C003B6269E101227B6A02FA03F3FB613B68D8
:101C2C001B68FA691340BB61BA69FB699A4240F0C0
:101C3C0058813B685B689A4A93425ED0984A9342BB
:101C4C0075D8984A934258D0964A93426FD8964A80
:101C5C00934252D0944A934269D8944A93424CD0BE
:101C6C00924A934263D8924A934246D0904A934206
:101C7C005DD8122B2AD8122B59D801A252F823F076
:101C8C00071D0008E11C0008F31C0008351D0008A6
:101C9C003B1D00083B1D00083B1D00083B1D0008B8
:101CAC003B1D00083B1D00083B1D00083B1D0008A8
:101CBC003B1D00083B1D00083B1D00083B1D000898
:101CCC003B1D0008E91C0008FD1C0008794A9342E2
:101CDC0013D02CE03B68DB683B6229E03B68DB6897
:101CEC0004333B6224E03B68DB6808333B621FE053
:101CFC003B68DB680C333B621AE03B689B68002B4B
:101D0C0002D104233B6213E03B689B68012B05D195
:101D1C0008233B627B68FA691A6109E008233B627D
:101D2C007B68FA695A6103E000233B6200E000BF64
:101D3C00BB69FF2B01D87B6801E07B6804337B61B6
:101D4C00BB69FF2B02D87B6A9B0002E07B6A083BD5
:101D5C009B003B617B691A680F213B6901FA03F315
:101D6C00DB431A40396A3B6901FA03F31A437B6976
:101D7C001A603B685B6803F08053002B00F0B18065
:101D8C004D4B9B694C4A43F0010393614A4B9B6951
:101D9C0003F00103BB60BB68484A7B6A9B080233B3
:101DAC0052F82330FB607B6A03F003039B000F2285
:101DBC0002FA03F3DB43FA681340FB607B68404A8A
:101DCC00934213D07B683F4A93420DD07B683E4AC6
:101DDC00934207D07B683D4A934201D1032306E02E
:101DEC00042304E0022302E0012300E000237A6ACA
:101DFC0002F0030292009340FA681343FB602F49F0
:101E0C007B6A9B080233FA6841F823203B685B68C5
:101E1C0003F48013002B06D02D4B9A682C49BB6918
:101E2C0013438B6006E02A4B9A68BB69DB43284955
:101E3C0013408B603B685B6803F40013002B06D0E7
:101E4C00234BDA682249BB691343CB6006E0204B75
:101E5C00DA68BB69DB431E491340CB603B685B68A7
:101E6C0003F40033002B06D0194B5A681849BB6990
:101E7C0013434B6006E0164B5A68BB69DB431449AD
:101E8C0013404B603B685B6803F48033002B21D01C
:101E9C000F4B1A680E49BB6913430B6021E000BF5E
:101EAC000000321000003110000022100000211040
:101EBC000000121000001110001002400000014040
:101ECC0000080140000C01400010014000140140CA
:101EDC00000401400B4B1A68BB69DB4309491340F2
:101EEC000B607B6A01337B623B681A687B6A22FA5F
:101EFC0003F3002B7FF48EAE00BF00BF2C37BD4622
:101F0C0080BC70470004014080B485B000AF78609D
:101F1C000B467B807B689A687B881340002B02D031
:101F2C000123FB7301E00023FB73FB7B1846143782
:101F3C00BD4680BC704780B584B000AF78607B68CC
:101F4C00002B01D10123E8E07B6893F89132DBB2DE
:101F5C00002B06D17B68002283F89022786806F06B
:101F6C006DFD7B68032283F891227B6800225A71F5
:101F7C007B681B68184602F0C4FE7B6818687B6897
:101F8C0004330ECB02F09AFE0346002B05D07B687F
:101F9C00022283F891220123BFE07B681B68002199
:101FAC00184602F0C8FE0346002B05D07B680222BF
:101FBC0083F891220123B0E00023FB733EE0FA7B0F
:101FCC00796813469B001344DB000B441133012248
:101FDC001A70FA7B796813469B001344DB000B44A0
:101FEC001033FA7B1A70FA7B796813469B00134402
:101FFC00DB000B44133300221A70FA7B796813460A
:10200C009B001344DB000B44203300221A60FA7B44
:10201C00796813469B001344DB000B4424330022E5
:10202C001A60FB7B79685A1C13469B001344DB0037
:10203C000B4400221A60FB7B0133FB737B681B791A
:10204C00FA7B9A42BBD30023FB7344E0FA7B79689A
:10205C0013469B001344DB000B4403F25113002284
:10206C001A70FA7B796813469B001344DB000B440F
:10207C0003F5A873FA7B1A70FA7B796813469B00F8
:10208C001344DB000B4403F2531300221A70FA7B47
:10209C00796813469B001344DB000B4403F5B073C3
:1020AC0000221A60FA7B796813469B001344DB000C
:1020BC000B4403F5B27300221A60FA7B796813465D
:1020CC009B001344DB000B4403F5B47300221A602D
:1020DC00FB7B0133FB737B681B79FA7B9A42B5D38C
:1020EC007B6818687B6804330ECB02F030FE034625
:1020FC00002B05D07B68022283F8912201230CE08F
:10210C007B6800225A737B68012283F891227B68DA
:10211C001B68184605F0AFF8002318461037BD466B
:10212C0080BD80B582B000AF78607B6893F8903248
:10213C00012B01D1022316E07B68012283F8902247
:10214C007B681B68184602F0C6FD0121786806F012
:10215C00CAFE7B681B68184605F083F87B68002272
:10216C0083F89022002318460837BD4680BD80B501
:10217C0088B000AF78607B681B68184605F085F85E
:10218C00B861BB6903F40043002B03D0786800F0FE
:10219C001AFB19E1BB6903F48063002B13D07B6835
:1021AC001B68B3F844309AB27B681B6822F48062D7
:1021BC0092B2A3F84420786806F0BBFC0021786842
:1021CC0000F005F900E1BB6903F48043002B0CD04F
:1021DC007B681B68B3F844309AB27B681B6822F4A6
:1021EC00804292B2A3F84420EEE0BB6903F40053A2
:1021FC00002B0CD07B681B68B3F844309AB27B6818
:10220C001B6822F4005292B2A3F84420DCE0BB69B4
:10221C0003F48053002B27D07B681B68B3F8403045
:10222C009AB27B681B6822F0040292B2A3F8402099
:10223C007B681B68B3F840309AB27B681B6822F04D
:10224C00080292B2A3F84020786806F0ABFC7B68D9
:10225C001B68B3F844309AB27B681B6822F4805236
:10226C0092B2A3F84420AFE0BB6903F40063002BE7
:10227C0000F083800023FB7710E07B681B681A4614
:10228C00FB7F9B001A44FB7F128892B25B002033C9
:10229C003B4423F8182CFB7F0133FB77FB7F072B88
:1022AC00EBD97B681B68B3F840309AB27B681B682B
:1022BC0042F0010292B2A3F840207B681B68B3F88D
:1022CC0040309AB27B681B6822F0010292B2A3F8EC
:1022DC00402000BF7B681B68B3F844309BB203F40A
:1022EC008063002BF6D07B681B68B3F844309AB23D
:1022FC007B681B6822F4806292B2A3F8442000230E
:10230C00FB770FE0FB7F7A6812681146FA7F920028
:10231C000A445B0020333B4433F8183C1380FB7FAA
:10232C000133FB77FB7F072BECD97B681B68B3F879
:10233C0040309AB27B681B6842F0080292B2A3F854
:10234C0040207B681B68B3F844309AB27B681B68EA
:10235C0022F4006292B2A3F844207B681B68B3F8A5
:10236C0040309AB27B681B6842F0040292B2A3F828
:10237C004020786806F0FCFB26E0BB6903F4007390
:10238C00002B0FD07B681B68B3F844309AB27B6883
:10239C001B6822F4007292B2A3F84420786806F00D
:1023AC00BAFB11E0BB6903F48073002B0CD07B6883
:1023BC001B68B3F844309AB27B681B6822F48072B5
:1023CC0092B2A3F8442000BF2037BD4680BD80B533
:1023DC0082B000AF78600B46FB707B6893F890324C
:1023EC00012B01D1022312E07B68012283F8902299
:1023FC007B68FA785A737B681B68FA781146184622
:10240C0004F01CFF7B68002283F8902200231846FE
:10241C000837BD4680BD80B584B000AF78600846F3
:10242C0011461A460346FB700B463B801346BB70A5
:10243C000023FB7297F90330002B0EDAFB7803F0C4
:10244C00070213469B001344DB0010337A681344D5
:10245C00FB60FB6801225A700EE0FB7803F0070268
:10246C0013469B001344DB0003F5A8737A681344EE
:10247C00FB60FB6800225A70FB7803F00703DAB2AA
:10248C00FB681A703A88FB681A61FB68BA78DA70D4
:10249C00BB78022B02D1FB6800221A717B6893F87F
:1024AC009032012B01D102230EE07B68012283F8CC
:1024BC0090227B681B68F968184602F065FC7B6803
:1024CC00002283F89022FB7A18461037BD4680BD57
:1024DC0080B584B000AF78600B46FB7097F9033081
:1024EC00002B0EDAFB7803F0070213469B00134413
:1024FC00DB0010337A681344FB60FB6801225A70CE
:10250C000EE0FB7803F0070213469B001344DB003C
:10251C0003F5A8737A681344FB60FB6800225A70B9
:10252C00FB7803F00703DAB2FB681A707B6893F848
:10253C009032012B01D102230EE07B68012283F83B
:10254C0090227B681B68F968184602F0DDFF7B68F7
:10255C00002283F89022002318461037BD4680BD18
:10256C0080B586B000AFF8607A603B600B46FB72BA
:10257C00FB7A03F0070213469B001344DB0003F5C0
:10258C00A873FA6813447B617B697A685A617B692A
:10259C003A689A617B690022DA617B6900225A7081
:1025AC00FB7A03F00703DAB27B691A70FB681B68CD
:1025BC007969184603F094F9002318461837BD467C
:1025CC0080BD80B483B000AF78600B46FB70FB78A5
:1025DC0003F00702796813469B001344DB000B449D
:1025EC0003F5B6731B6818460C37BD4680BC7047A4
:1025FC0080B586B000AFF8607A603B600B46FB722A
:10260C00FB7A03F0070213469B001344DB001033E4
:10261C00FA6813447B617B697A685A617B693A6812
:10262C009A617B69012283F824207B693A681A62DB
:10263C007B690022DA617B6901225A70FB7A03F014
:10264C000703DAB27B691A70FB681B687969184654
:10265C0003F046F9002318461837BD4680BD80B5F7
:10266C0084B000AF78600B46FB70FB7803F0070377
:10267C007A681279934201D901234CE097F903301F
:10268C00002B0EDAFB7803F0070213469B00134471
:10269C00DB0010337A681344FB60FB6801225A702C
:1026AC000CE0FA7813469B001344DB0003F5A87387
:1026BC007A681344FB60FB6800225A70FB680122A5
:1026CC009A70FB7803F00703DAB2FB681A707B6828
:1026DC0093F89032012B01D102231CE07B6801227C
:1026EC0083F890227B681B68F968184604F0A9FCF3
:1026FC00FB7803F00703002B08D17B681A687B6812
:10270C0003F526731946104604F0CEFD7B680022B3
:10271C0083F89022002318461037BD4680BD80B543
:10272C0084B000AF78600B46FB70FB7803F00F03AE
:10273C007A681279934201D9012340E097F903306A
:10274C00002B0EDAFB7803F0070213469B001344B0
:10275C00DB0010337A681344FB60FB6801225A706B
:10276C000EE0FB7803F0070213469B001344DB00DA
:10277C0003F5A8737A681344FB60FB6800225A7057
:10278C00FB6800229A70FB7803F00703DAB2FB684F
:10279C001A707B6893F89032012B01D102230EE062
:1027AC007B68012283F890227B681B68F9681846C5
:1027BC0004F097FC7B68002283F8902200231846D3
:1027CC001037BD4680BD80B596B000AF7860BBE3D6
:1027DC007B681B68B3F84430A7F84E30B7F84E301E
:1027EC00DBB203F00F0387F84D3097F84D30002B18
:1027FC0040F07581B7F84E3003F01003002B4ED12A
:10280C007B681B681B889BB223F4E14323F07003A5
:10281C00FB817B681A68FB896FEA43436FEA534379
:10282C009BB213807B6810337B657B681B68B3F8A5
:10283C0050309BB21A467B6D1B78DB00134402337D
:10284C005B007A681268134403F580631B88C3F33A
:10285C0009027B6DDA617B6D5A697B6DDB691A4409
:10286C007B6D5A610021786806F03BF97B685B7BD5
:10287C00DBB2002B00F068837B6D9B69002B40F072
:10288C0063837B685B7BDBB263F07F03DAB27B68CC
:10289C001B68A3F84C207B6800225A7354E37B68B6
:1028AC0003F5A8737B657B681B681B88A7F84A3007
:1028BC00B7F84A3003F40063002B34D07B681B68F4
:1028CC00B3F850309BB21A467B6D1B78DB00134477
:1028DC0006335B007A681268134403F580631B8827
:1028EC00C3F309027B6DDA617B6818687B6803F5BA
:1028FC0026717B6DDA887B6DDB699BB204F024FD5D
:10290C007B681B681B889AB240F68F7313403B821E
:10291C007B681B683A8A42F0800292B21A8078680F
:10292C0006F0B2F810E3B7F94A30002B80F20C83B2
:10293C007B681B681B889AB240F68F731340FB832D
:10294C007B681B68FA8B42F0800292B21A807B681B
:10295C001B68B3F850309BB21A467B6D1B78DB00BA
:10296C00134406335B007A681268134403F58063E2
:10297C001B88C3F309027B6DDA617B6DDB69002B6D
:10298C0019D07B6D5B69002B15D07B6818687B6D4B
:10299C0059697B6DDA887B6DDB699BB204F0D4FCE2
:1029AC007B6D5A697B6DDB691A447B6D5A61002122
:1029BC00786806F07BF87B681B681B88A7F84A30A0
:1029CC00B7F84A3003F40063002B40F0BD82B7F82F
:1029DC004A3003F44053B3F5405F00F0B5827B6896
:1029EC001B68BB617B681B68B3F850309BB21A46FE
:1029FC00BB691344BB61BB6903F20C437B617B690C
:102A0C001B889BB2C3F309039AB27B691A807B6D56
:102A1C001B693E2B1DD97B6D1B695B097B647B6D30
:102A2C001B6903F01F03002B02D17B6C013B7B6401
:102A3C007B691B889AB27B6C9BB29B029BB2134343
:102A4C009BB26FEA43436FEA53439AB27B691A8095
:102A5C0026E07B6D1B69002B0AD17B691B889BB21E
:102A6C006FEA43436FEA53439AB27B691A8017E0CB
:102A7C007B6D1B695B087B647B6D1B6903F0010339
:102A8C00002B02D07B6C01337B647B691B889AB270
:102A9C007B6C9BB29B029BB213439AB27B691A80EC
:102AAC007B681B681B889BB223F4804323F0700364
:102ABC007B827B8A83F480537B827B8A83F40053F2
:102ACC007B827B681A687B8A43F07F4343F47F03E5
:102ADC0043F4004343F080039BB2138034E27B68E1
:102AEC001B681A4697F84D309B0013441B88A7F8B7
:102AFC004A30B7F94A30002B80F2FC807B681B68A7
:102B0C001A4697F84D309B0013441B889AB240F636
:102B1C008F731340A7F848307B681B681A4697F8E8
:102B2C004D309B001344B7F8482042F0800292B21B
:102B3C001A8097F84D2013469B001344DB0003F5D5
:102B4C00A8737A6813447B657B6D1B7B002B25D1A6
:102B5C007B681B68B3F850309BB21A467B6D1B78B0
:102B6C00DB00134406335B007A681268134403F5E8
:102B7C0080631B88C3F30903A7F85030B7F85030B3
:102B8C00002B00F092807B6818687B6D59697B6D17
:102B9C00DA88B7F8503004F0D7FB86E07B6DDB7831
:102BAC00022B0AD1B7F84A301A46796D786800F0D2
:102BBC00D9F90346A7F8503077E07B681B681A46B2
:102BCC007B6D1B789B0013441B889BB223F4E04362
:102BDC0023F07003A7F852307B681B681A467B6D94
:102BEC001B789B001A44B7F8523043F07F4343F4F0
:102BFC007F0343F4004343F0C0039BB213807B6814
:102C0C001B681A467B6D1B789B0013441B889BB278
:102C1C0003F48043002B24D07B681B68B3F850303E
:102C2C009BB21A467B6D1B78DB00134402335B00AE
:102C3C007A681268134403F580631B88C3F3090395
:102C4C00A7F85030B7F85030002B2ED07B6818689E
:102C5C007B6D59697B6D1A89B7F8503004F074FBA1
:102C6C0023E07B681B68B3F850309BB21A467B6D2F
:102C7C001B78DB00134406335B007A68126813443C
:102C8C0003F580631B88C3F30903A7F85030B7F82A
:102C9C005030002B09D07B6818687B6D59697B6DAF
:102CAC005A89B7F8503004F04FFB7B6DDA69B7F8EE
:102CBC0050301A447B6DDA617B6D5A69B7F850302D
:102CCC001A447B6D5A617B6D9B69002B05D0B7F85C
:102CDC0050207B6D1B699A4206D27B6D1B7819467E
:102CEC00786805F0E3FE05E07B681B68796D184693
:102CFC0002F0F6FDB7F84A3003F08003002B00F029
:102D0C00238197F84D2013469B001344DB001033AE
:102D1C007A6813447B657B681B681A4697F84D30BC
:102D2C009B0013441B889BB223F4E14323F07003F4
:102D3C00A7F842307B681B681A4697F84D309B0009
:102D4C001A44B7F842306FEA43436FEA53439BB2DD
:102D5C0013807B6DDB78012B40F0A2807B6D002211
:102D6C009A617B6D1B7B002B00F09380B7F84A3087
:102D7C0003F04003002B46D07B6D5B78002B26D1F3
:102D8C007B681B687B627B681B68B3F850309BB216
:102D9C001A467B6A13447B627B6D1B781A017B6A33
:102DAC00134403F204433B623B6A1B889BB2C3F39C
:102DBC0009039AB23B6A1A803B6A1B889BB26FEA82
:102DCC0043436FEA53439AB23B6A1A8061E07B6DCE
:102DDC005B78012B5DD17B681B68FB627B681B6891
:102DEC00B3F850309BB21A46FB6A1344FB627B6DFE
:102DFC001B781A01FB6A134403F20443BB62BB6ADF
:102E0C0000221A8045E07B681B68FB637B6D5B7856
:102E1C00002B26D17B681B687B637B681B68B3F82F
:102E2C0050309BB21A467B6B13447B637B6D1B78D3
:102E3C001A017B6B134403F20C433B633B6B1B8803
:102E4C009BB2C3F309039AB23B6B1A803B6B1B8892
:102E5C009BB26FEA43436FEA53439AB23B6B1A80BF
:102E6C0017E07B6D5B78012B13D17B681B68B3F883
:102E7C0050309BB21A46FB6B1344FB637B6D1B7883
:102E8C001A01FB6B134403F20C43BB63BB6B0022B4
:102E9C001A807B6D1B781946786805F022FE53E08A
:102EAC00B7F84A3003F48073002B46D17B681B685B
:102EBC00B3F850309BB21A467B6D1B78DB00134481
:102ECC0002335B007A681268134403F580631B8835
:102EDC00C3F30903A7F840307B6D9A69B7F840300B
:102EEC009A4207D97B6D9A69B7F84030D21A7B6D3C
:102EFC009A6102E07B6D00229A617B6D9B69002BCD
:102F0C0006D17B6D1B781946786805F0EAFD1BE04D
:102F1C007B6D5A69B7F840301A447B6D5A617B6DF2
:102F2C00DA69B7F840301A447B6DDA617B681B684C
:102F3C00796D184602F0D4FC06E0B7F84A301A4610
:102F4C00796D786800F01BF97B681B68B3F8443026
:102F5C009BB21BB2002BFFF63BAC00231846583734
:102F6C00BD4680BD80B588B000AFF860B96013462F
:102F7C00FB80FB8803F48043002B7ED0FB681B682E
:102F8C00B3F850309BB21A46BB681B78DB00134475
:102F9C0002335B00FA681268134403F580631B88E4
:102FAC00C3F309037B83BB689A697B8B9A4206D374
:102FBC00BB689A697B8BD21ABB689A6102E0BB68CA
:102FCC0000229A61BB689B69002B23D1FB681B68AC
:102FDC001A46BB681B789B0013441B889BB223F4D6
:102FEC00804323F070033B833B8B83F400533B8380
:102FFC00FB681B681A46BB681B789B001A443B8B0A
:10300C0043F07F4343F47F0343F4004343F08003D6
:10301C009BB21380FB8803F04003002B1FD0FB688E
:10302C001B681A46BB681B789B0013441B889BB219
:10303C0023F4E04323F07003FB82FB681B681A4601
:10304C00BB681B789B001A44FB8A43F07F4343F414
:10305C007F0343F4004343F0C0039BB213807B8B8C
:10306C00002B00F08780FB681868BB685969BB6847
:10307C001A897B8B04F068F97CE0FB681B68B3F859
:10308C0050309BB21A46BB681B78DB0013440633E6
:10309C005B00FA681268134403F580631B88C3F362
:1030AC0009037B83BB689A697B8B9A4206D3BB6806
:1030BC009A697B8BD21ABB689A6102E0BB680022CA
:1030CC009A61BB689B69002B23D1FB681B681A466D
:1030DC00BB681B789B0013441B889BB223F4804372
:1030EC0023F07003FB83FB8B83F40053FB83FB689F
:1030FC001B681A46BB681B789B001A44FB8B43F079
:10310C007F4343F47F0343F4004343F080039BB2BB
:10311C001380FB8803F04003002B1FD1FB681B6856
:10312C001A46BB681B789B0013441B889BB223F484
:10313C00E04323F07003BB83FB681B681A46BB6833
:10314C001B789B001A44BB8B43F07F4343F47F03F3
:10315C0043F4004343F0C0039BB213807B8B002BE2
:10316C0008D0FB681868BB685969BB685A897B8BA7
:10317C0004F0EAF87B8B18462037BD4680BD80B53D
:10318C00A4B000AFF860B9601346FB80FB8803F075
:10319C004003002B00F0DD81FB681B68B3F8503056
:1031AC009BB21A46BB681B78DB00134402335B00EE
:1031BC00FA681268134403F580631B88C3F3090390
:1031CC00A7F88630BB689A69B7F886309A4207D957
:1031DC00BB689A69B7F88630D21ABB689A6102E06C
:1031EC00BB6800229A61BB689B69002B40F0B980D8
:1031FC00BB685B78002B26D1FB681B68FB62FB6805
:10320C001B68B3F850309BB21A46FB6A1344FB623E
:10321C00BB681B781A01FB6A134403F20443BB62BC
:10322C00BB6A1B889BB2C3F309039AB2BB6A1A80B0
:10323C00BB6A1B889BB26FEA43436FEA53439AB253
:10324C00BB6A1A801AE0BB685B78012B16D1FB684D
:10325C001B687B63FB681B68B3F850309BB21A4643
:10326C007B6B13447B63BB681B781A017B6B134429
:10327C0003F204433B633B6B00221A80FB681B6820
:10328C007B62BB685B78002B26D1FB681B68FB61FB
:10329C00FB681B68B3F850309BB21A46FB691344A9
:1032AC00FB61BB681B781A01FB69134403F20C43E6
:1032BC00BB61BB691B889BB2C3F309039AB2BB69A0
:1032CC001A80BB691B889BB26FEA43436FEA534376
:1032DC009AB2BB691A8017E0BB685B78012B13D1DB
:1032EC00FB681B68B3F850309BB21A467B6A1344D8
:1032FC007B62BB681B781A017B6A134403F20C4394
:10330C003B623B6A00221A80BB681B781946F8683E
:10331C0005F0E7FBFB8803F48043002B00F0FC82F4
:10332C00FB681B681A46BB681B789B0013441B8800
:10333C009BB223F4E04323F07003FB82FB681B6811
:10334C001A46BB681B789B001A44FB8A43F07F43E8
:10335C0043F47F0343F4404343F080039BB2138058
:10336C00DAE2FB8803F48043002B21D0FB681B6856
:10337C001A46BB681B789B0013441B889BB223F432
:10338C00E04323F07003A7F88A30FB681B681A46E9
:10339C00BB681B789B001A44B7F88A3043F07F4314
:1033AC0043F47F0343F4404343F080039BB2138008
:1033BC00BB6893F82430012B40F0AE82BB685A698D
:1033CC00B7F886301A44BB685A61BB68DA69B7F83B
:1033DC0086301A44BB68DA61BB681A6ABB681B6921
:1033EC009A420BD3BB681B69C7F88C30BB681A6A4E
:1033FC00D7F88C30D21ABB681A6217E0BB681B6A0C
:10340C00002B08D1B7F88630C7F88C30BB68002287
:10341C0083F824200AE0BB68002283F82420BB68D0
:10342C001B6AC7F88C30BB6800221A62BB685B78D9
:10343C00002B65D1FB681B68FB63FB681B68B3F84A
:10344C0050309BB21A46FB6B1344FB63BB681B7872
:10345C001A01FB6B134403F20443BB63BB6B1B8865
:10346C009BB2C3F309039AB2BB6B1A80D7F88C30AA
:10347C003E2B1DD9D7F88C305B09BB64D7F88C3048
:10348C0003F01F03002B02D1BB6C013BBB64BB6B75
:10349C001B889AB2BB6C9BB29B029BB213439BB230
:1034AC006FEA43436FEA53439AB2BB6B1A8044E012
:1034BC00D7F88C30002B0AD1BB6B1B889BB26FEA00
:1034CC0043436FEA53439AB2BB6B1A8035E0D7F88B
:1034DC008C305B08BB64D7F88C3003F00103002BF5
:1034EC0002D0BB6C0133BB64BB6B1B889AB2BB6C48
:1034FC009BB29B029BB213439AB2BB6B1A801CE02B
:10350C00BB685B78012B18D1FB681B687B64FB687C
:10351C001B68B3F850309BB21A467B6C13447B6427
:10352C00BB681B781A017B6C134403F204433B64A5
:10353C00D7F88C309AB23B6C1A80FB681868BB6861
:10354C005969BB681A89D7F88C309BB203F0B7FE67
:10355C00E2E1FB681B68B3F850309BB21A46BB68BB
:10356C001B78DB00134406335B00FA6812681344C3
:10357C0003F580631B88C3F30903A7F88630BB6887
:10358C009A69B7F886309A4207D3BB689A69B7F83C
:10359C008630D21ABB689A6102E0BB6800229A613D
:1035AC00BB689B69002B40F0C080BB685B78002B2C
:1035BC0026D1FB681B68FB67FB681B68B3F85030AF
:1035CC009BB21A46FB6F1344FB67BB681B781A014E
:1035DC00FB6F134403F20443BB67BB6F1B889BB2A6
:1035EC00C3F309039AB2BB6F1A80BB6F1B889BB2E3
:1035FC006FEA43436FEA53439AB2BB6F1A801AE0E7
:10360C00BB685B78012B16D1FB681B687B66FB687B
:10361C001B68B3F850309BB21A467B6E13447B6622
:10362C00BB681B781A017B6E134403F204433B66A0
:10363C003B6E00221A80FB681B687B67BB685B785B
:10364C00002B2BD1FB681B68FB66FB681B68B3F86F
:10365C0050309BB21A46FB6E1344FB66BB681B785A
:10366C001A01FB6E134403F20C43C7F88030D7F8F1
:10367C0080301B889BB2C3F309039AB2D7F8803011
:10368C001A80D7F880301B889BB26FEA43436FEAED
:10369C0053439AB2D7F880301A8017E0BB685B7836
:1036AC00012B13D1FB681B68B3F850309BB21A4640
:1036BC007B6F13447B67BB681B781A017B6F1344C9
:1036CC0003F20C433B673B6F00221A80BB681B78EC
:1036DC001946F86805F005FAFB8803F48043002BC3
:1036EC0040F01A81FB681B681A46BB681B789B006C
:1036FC0013441B889BB223F4E04323F07003A7F818
:10370C008830FB681B681A46BB681B789B001A4400
:10371C00B7F8883043F07F4343F47F0343F44043CE
:10372C0043F080039BB21380F6E0FB8803F48043E4
:10373C00002B21D1FB681B681A46BB681B789B00C9
:10374C0013441B889BB223F4E04323F07003A7F8C7
:10375C004E30FB681B681A46BB681B789B001A44EA
:10376C00B7F84E3043F07F4343F47F0343F44043B8
:10377C0043F080039BB21380BB6893F82430012B79
:10378C0040F0CA80BB685A69B7F886301A44BB68E7
:10379C005A61BB68DA69B7F886301A44BB68DA61DB
:1037AC00BB681A6ABB681B699A420BD3BB681B695E
:1037BC00C7F88C30BB681A6AD7F88C30D21ABB6841
:1037CC001A6217E0BB681B6A002B08D1B7F8863069
:1037DC00C7F88C30BB68002283F824200AE0BB6851
:1037EC001B6AC7F88C30BB6800221A62BB680022C7
:1037FC0083F82420FB681B687B65BB685B78002B17
:10380C0065D1FB681B68FB65FB681B68B3F850301F
:10381C009BB21A46FB6D1344FB65BB681B781A01FF
:10382C00FB6D134403F20C43BB65BB6D1B889BB251
:10383C00C3F309039AB2BB6D1A80D7F88C303E2BB8
:10384C001DD9D7F88C305B09BB66D7F88C3003F0E8
:10385C001F03002B02D1BB6E013BBB66BB6D1B88EB
:10386C009AB2BB6E9BB29B029BB213439BB26FEAA4
:10387C0043436FEA53439AB2BB6D1A8041E0D7F8C9
:10388C008C30002B0AD1BB6D1B889BB26FEA434373
:10389C006FEA53439AB2BB6D1A8032E0D7F88C3082
:1038AC005B08BB66D7F88C3003F00103002B02D009
:1038BC00BB6E0133BB66BB6D1B889AB2BB6E9BB2F1
:1038CC009B029BB213439AB2BB6D1A8019E0BB6882
:1038DC005B78012B15D1FB681B68B3F850309BB299
:1038EC001A467B6D13447B65BB681B781A017B6D94
:1038FC00134403F20C433B65D7F88C309AB23B6D02
:10390C001A80FB681868BB685969BB685A89D7F874
:10391C008C309BB203F0D3FCFB681B681A46BB6867
:10392C001B789B0013441B889BB223F4E04323F0C9
:10393C004003BB82BB8A83F01003BB82BB8A83F03B
:10394C002003BB82FB681B681A46BB681B789B0074
:10395C001A44BB8A43F07F4343F47F0343F4004390
:10396C0043F080039BB21380002318469037BD466A
:10397C0080BD80B487B000AFF8607B600B467B8164
:10398C0013463B817B8903F080039BB2002B0BD049
:10399C007B8903F0070213469B001344DB001033B2
:1039AC00FA6813447B6109E07A8913469B0013443F
:1039BC00DB0003F5A873FA6813447B613B89002B89
:1039CC0007D17B6900221A737B689AB27B69DA8013
:1039DC000BE07B6901221A737B689AB27B691A81AE
:1039EC007B681B0C9AB27B695A81002318461C37E2
:1039FC00BD4680BC7047000080B586B000AF7860D3
:103A0C007B68002B01D1012372E27B681B6803F0F9
:103A1C000103002B00F08780924B5B6803F00C03D2
:103A2C00042B0CD08F4B5B6803F00C03082B12D1CA
:103A3C008C4B5B6803F48033B3F5803F0BD1894B1F
:103A4C001B6803F40033002B6CD07B685B68002B85
:103A5C0068D101234CE27B685B68B3F5803F06D1EB
:103A6C00804B1B687F4A43F4803313602EE07B68E5
:103A7C005B68002B0CD17B4B1B687A4A23F4803398
:103A8C001360784B1B68774A23F4802313601DE086
:103A9C007B685B68B3F5A02F0CD1724B1B68714A25
:103AAC0043F4802313606F4B1B686E4A43F48033DE
:103ABC0013600BE06B4B1B686A4A23F48033136072
:103ACC00684B1B68674A23F4802313607B685B6830
:103ADC00002B13D0FDF724FB386108E0FDF720FB29
:103AEC0002463B69D31A642B01D9032300E25D4BD8
:103AFC001B6803F40033002BF0D014E0FDF710FB2F
:103B0C00386108E0FDF70CFB02463B69D31A642BC5
:103B1C0001D90323ECE1534B1B6803F40033002B56
:103B2C00F0D100E000BF7B681B6803F00203002BA0
:103B3C0063D04C4B5B6803F00C03002B0BD0494B50
:103B4C005B6803F00C03082B1CD1464B5B6803F439
:103B5C008033002B16D1434B1B6803F00203002B60
:103B6C0005D07B681B69012B01D00123C0E13D4BC3
:103B7C001B6823F0F8027B685B69DB00394913434F
:103B8C000B603AE07B681B69002B20D0364B01227E
:103B9C001A60FDF7C5FA386108E0FDF7C1FA024674
:103BAC003B69D31A022B01D90323A1E12D4B1B68CE
:103BBC0003F00203002BF0D02A4B1B6823F0F80211
:103BCC007B685B69DB00274913430B6015E0264BD0
:103BDC0000221A60FDF7A4FA386108E0FDF7A0FA9C
:103BEC0002463B69D31A022B01D9032380E11D4BFA
:103BFC001B6803F00203002BF0D17B681B6803F0F9
:103C0C000803002B3AD07B689B69002B19D0174B0B
:103C1C0001221A60FDF784FA386108E0FDF780FA9A
:103C2C0002463B69D31A022B01D9032360E10D4BE9
:103C3C005B6A03F00203002BF0D0012000F0BAFA0B
:103C4C001CE00A4B00221A60FDF76AFA38610FE09B
:103C5C00FDF766FA02463B69D31A022B08D90323F7
:103C6C0046E100BF00100240000042428004424284
:103C7C00924B5B6A03F00203002BE9D17B681B6853
:103C8C0003F00403002B00F0A6800023FB758B4B84
:103C9C00DB6903F08053002B0DD1884BDB69874A1D
:103CAC0043F08053D361854BDB6903F08053BB60D9
:103CBC00BB680123FB75824B1B6803F48073002BDC
:103CCC0018D17F4B1B687E4A43F480731360FDF759
:103CDC0027FA386108E0FDF723FA02463B69D31A4C
:103CEC00642B01D9032303E1754B1B6803F4807328
:103CFC00002BF0D07B68DB68012B06D16F4B1B6A65
:103D0C006E4A43F0010313622DE07B68DB68002BE5
:103D1C000CD16A4B1B6A694A23F001031362674B8F
:103D2C001B6A664A23F0040313621CE07B68DB68A1
:103D3C00052B0CD1614B1B6A604A43F004031362E0
:103D4C005E4B1B6A5D4A43F0010313620BE05B4B55
:103D5C001B6A5A4A23F001031362584B1B6A574AD9
:103D6C0023F0040313627B68DB68002B15D0FDF78E
:103D7C00D7F938610AE0FDF7D3F902463B69D31A4B
:103D8C0041F28832934201D90323B1E04B4B1B6AB9
:103D9C0003F00203002BEED014E0FDF7C1F93861FB
:103DAC000AE0FDF7BDF902463B69D31A41F28832AD
:103DBC00934201D903239BE0404B1B6A03F002039F
:103DCC00002BEED1FB7D012B05D13C4BDB693B4A33
:103DDC0023F08053D3617B68DB69002B00F0878074
:103DEC00364B5B6803F00C03082B61D07B68DB69F6
:103DFC00022B46D1334B00221A60FDF791F9386142
:103E0C0008E0FDF78DF902463B69D31A022B01D964
:103E1C0003236DE0294B1B6803F00073002BF0D1DA
:103E2C007B681B6AB3F5803F08D1244B5B6823F495
:103E3C0000327B689B68214913434B601F4B5B68C6
:103E4C0023F474127B68196A7B685B6A0B431B4909
:103E5C0013434B601B4B01221A60FDF761F938616B
:103E6C0008E0FDF75DF902463B69D31A022B01D934
:103E7C0003233DE0114B1B6803F00073002BF0D0C3
:103E8C0035E0104B00221A60FDF74AF9386108E062
:103E9C00FDF746F902463B69D31A022B01D90323DD
:103EAC0026E0064B1B6803F00073002BF0D11EE0DC
:103EBC007B68DB69012B07D1012319E0001002405C
:103ECC0000700040600042420B4B5B68FB60FB687B
:103EDC0003F480327B681B6A9A4206D1FB6803F4B8
:103EEC0070127B685B6A9A4201D0012300E00023C8
:103EFC0018461837BD4680BD0010024080B584B00E
:103F0C0000AF786039607B68002B01D10123D0E0D1
:103F1C006A4B1B6803F007033A689A4210D9674B47
:103F2C001B6823F0070265493B6813430B60634B26
:103F3C001B6803F007033A689A4201D00123B8E0EA
:103F4C007B681B6803F00203002B20D07B681B6886
:103F5C0003F00403002B05D0594B5B68584A43F41B
:103F6C00E06353607B681B6803F00803002B05D0EB
:103F7C00534B5B68524A43F460535360504B5B683D
:103F8C0023F0F0027B689B684D4913434B607B68C0
:103F9C001B6803F00103002B40D07B685B68012B8E
:103FAC0007D1474B1B6803F40033002B15D10123B9
:103FBC007FE07B685B68022B07D1414B1B6803F0E9
:103FCC000073002B09D1012373E03D4B1B6803F0F8
:103FDC000203002B01D101236BE0394B5B6823F00A
:103FEC0003027B685B68364913434B60FDF798F816
:103FFC00F8600AE0FDF794F80246FB68D31A41F228
:10400C008832934201D9032353E02D4B5B6803F0B4
:10401C000C027B685B689B009A42EBD1274B1B68B8
:10402C0003F007033A689A4210D2244B1B6823F022
:10403C00070222493B6813430B60204B1B6803F0BB
:10404C0007033A689A4201D0012332E07B681B686F
:10405C0003F00403002B08D0194B5B6823F4E062D7
:10406C007B68DB68164913434B607B681B6803F065
:10407C000803002B09D0124B5B6823F460527B6859
:10408C001B69DB000E4913434B6000F021F802461C
:10409C000B4B5B681B0903F00F030A49CB5C22FA3C
:1040AC0003F3094A1360094B1B681846FCF7F6FF2B
:1040BC00002318461037BD4680BD00BF00200240CB
:1040CC00001002405092000814000020180000203C
:1040DC0080B487B000AF0023FB600023BB600023DB
:1040EC007B6100237B6000233B611E4B5B68FB60A4
:1040FC00FB6803F00C03042B02D0082B03D027E041
:10410C00194B3B6127E0FB689B0C03F00F03174A2C
:10411C00D35C7B60FB6803F48033002B10D0114B15
:10412C005B685B0C03F00103114AD35CBB607B68DA
:10413C000D4A03FB02F2BB68B2FBF3F37B6104E0B4
:10414C007B680C4A02FB03F37B617B693B6102E0F9
:10415C00054B3B6100BF3B6918461C37BD4680BC14
:10416C00704700BF0010024000127A0068920008ED
:10417C007892000800093D0080B400AF024B1B6828
:10418C001846BD4680BC70471400002080B500AFB7
:10419C00FFF7F2FF0246054B5B68DB0A03F00703EF
:1041AC000349CB5C22FA03F3184680BD0010024091
:1041BC006092000880B485B000AF78600A4B1B6831
:1041CC000A4AA2FB03235B0A7A6802FB03F3FB6037
:1041DC0000BFFB685A1EFA60002BF9D100BF00BF6C
:1041EC001437BD4680BC704714000020D34D6210BC
:1041FC0080B586B000AF786000233B610023FB6084
:10420C007B681B6803F00103002B7DD00023FB753A
:10421C004F4BDB6903F08053002B0DD14C4BDB690A
:10422C004B4A43F08053D361494BDB6903F0805315
:10423C00BB60BB680123FB75464B1B6803F48073A2
:10424C00002B18D1434B1B68424A43F48073136014
:10425C00FCF766FF386108E0FCF762FF02463B6939
:10426C00D31A642B01D903236DE03A4B1B6803F47A
:10427C008073002BF0D0364B1B6A03F44073FB6049
:10428C00FB68002B2ED07B685B6803F44073FA68E4
:10429C009A4227D02E4B1B6A23F44073FB602E4BA3
:1042AC0001221A602C4B00221A60294AFB68136207
:1042BC00FB6803F00103002B14D0FCF731FF3861CD
:1042CC000AE0FCF72DFF02463B69D31A41F2883213
:1042DC00934201D9032336E01D4B1B6A03F0020302
:1042EC00002BEED01A4B1B6A23F440727B685B6880
:1042FC00174913430B62FB7D012B05D1144BDB6972
:10430C00134A23F08053D3617B681B6803F00203CC
:10431C00002B08D00E4B5B6823F440427B689B68F3
:10432C000B4913434B607B681B6803F01003002B95
:10433C0008D0074B5B6823F480027B68DB68044978
:10434C0013434B60002318461837BD4680BD00BF91
:10435C0000100240007000404004424280B588B01A
:10436C0000AF786000237B610023FB6100233B617D
:10437C000023FB600023BB617B68102B0AD07B6899
:10438C00102B00F28A807B68012B45D07B68022BB6
:10439C0075D082E0464B5B68FB60454B1B6803F0B5
:1043AC008073002B7BD0FB689B0C03F00F03414AFE
:1043BC00D35C3B61FB6803F48033002B15D03C4B82
:1043CC005B685B0C03F001033B4AD35C7B61FB68CD
:1043DC0003F48033002B0DD0384A7B69B2FBF3F227
:1043EC003B6902FB03F3FB6104E03B69344A02FBCB
:1043FC0003F3FB612E4B5B6803F48003B3F5800F72
:10440C0002D1FB69BB614AE0FB695B002D4AA2FB50
:10441C0003235B08BB6142E0254B1B6AFB60FB6816
:10442C0003F44073B3F5807F08D1FB6803F00203FB
:10443C00002B03D04FF40043BB611FE0FB6803F477
:10444C004073B3F5007F09D1194B5B6A03F002038B
:10445C00002B03D049F64043BB610FE0FB6803F42B
:10446C004073B3F5407F1CD1114B1B6803F4003330
:10447C00002B16D04FF22443BB6112E011E0FFF782
:10448C0085FE02460A4B5B689B0B03F0030301336A
:10449C005B00B2FBF3F3BB6104E000BF02E000BFC2
:1044AC0000E000BFBB6918462037BD4680BD00BF89
:1044BC00001002407C9200088C92000800127A00D6
:1044CC0000093D00ABAAAAAA80B582B000AF786003
:1044DC007B68002B01D1012341E07B6893F83D30D0
:1044EC00DBB2002B06D17B68002283F83C20786875
:1044FC00FCF776FA7B68022283F83D207B681A6809
:10450C007B6804331946104600F064FA7B6801227C
:10451C0083F846207B68012283F83E207B680122C9
:10452C0083F83F207B68012283F840207B680122BE
:10453C0083F841207B68012283F842207B680122AA
:10454C0083F843207B68012283F844207B68012296
:10455C0083F845207B68012283F83D200023184610
:10456C000837BD4680BD000080B485B000AF7860D0
:10457C007B6893F83D30DBB2012B01D001233AE08C
:10458C007B68022283F83D207B681B68DA687B68B5
:10459C001B6842F00102DA607B681B68184A934280
:1045AC000ED07B681B68B3F1804F09D07B681B6809
:1045BC00144A934204D07B681B68134A934211D16E
:1045CC007B681B689B6803F00703FB60FB68062B8A
:1045DC0010D07B681B681A687B681B6842F001026C
:1045EC001A6007E07B681B681A687B681B6842F0DE
:1045FC0001021A60002318461437BD4680BC704770
:10460C00002C0140000400400008004080B584B03C
:10461C0000AF78607B681B68DB68FB607B681B689D
:10462C001B69BB60BB6803F00203002B20D0FB6846
:10463C0003F00203002B1BD07B681B686FF0020297
:10464C001A617B6801221A777B681B689B6903F0EF
:10465C000303002B03D0786800F0A1F905E078681B
:10466C0000F094F9786800F0A3F97B6800221A77BF
:10467C00BB6803F00403002B20D0FB6803F0040399
:10468C00002B1BD07B681B686FF004021A617B68DF
:10469C0002221A777B681B689B6903F44073002B1A
:1046AC0003D0786800F07BF905E0786800F06EF9CB
:1046BC00786800F07DF97B6800221A77BB6803F0FC
:1046CC000803002B20D0FB6803F00803002B1BD041
:1046DC007B681B686FF008021A617B6804221A77EA
:1046EC007B681B68DB6903F00303002B03D078683D
:1046FC0000F055F905E0786800F048F9786800F0AA
:10470C0057F97B6800221A77BB6803F01003002B63
:10471C0020D0FB6803F01003002B1BD07B681B68B8
:10472C006FF010021A617B6808221A777B681B688D
:10473C00DB6903F44073002B03D0786800F02FF989
:10474C0005E0786800F022F9786800F031F97B68B0
:10475C0000221A77BB6803F00103002B0CD0FB6816
:10476C0003F00103002B07D07B681B686FF001027C
:10477C001A61786800F001F9BB6803F08003002B24
:10478C000CD0FB6803F08003002B07D07B681B6800
:10479C006FF080021A61786800F087FABB6803F04A
:1047AC004003002B0CD0FB6803F04003002B07D018
:1047BC007B681B686FF040021A61786800F001F9A1
:1047CC00BB6803F02003002B0CD0FB6803F0200324
:1047DC00002B07D07B681B686FF020021A61786889
:1047EC0000F05AFA00BF1037BD4680BD80B584B0CA
:1047FC0000AF786039600023FB737B6893F83C3022
:10480C00012B01D10223B4E07B68012283F83C2008
:10481C007B68022283F83D207B681B689B68BB6029
:10482C00BB6823F07703BB60BB6823F47F43BB609A
:10483C007B681B68BA689A603B681B68B3F5005FBD
:10484C003ED0B3F5005F00F28780B3F5805F00F0D7
:10485C008680B3F5805F7FD8702B1AD0702B7BD8F5
:10486C00602B50D0602B77D8502B3CD0502B73D86A
:10487C00402B58D0402B6FD8302B64D0302B6BD8BA
:10488C00202B60D0202B67D8002B5CD0102B5AD05B
:10489C0062E07B6818683B6899683B685A683B68BB
:1048AC00DB6800F07CF97B681B689B68BB60BB68AD
:1048BC0043F07703BB607B681B68BA689A604FE073
:1048CC007B6818683B6899683B685A683B68DB688A
:1048DC0000F065F97B681B689A687B681B6842F47A
:1048EC0080429A603CE07B6818683B6859683B687A
:1048FC00DB681A4600F0DCF87B681B685021184610
:10490C0000F033F92CE07B6818683B6859683B6809
:10491C00DB681A4600F0FAF87B681B6860211846C1
:10492C0000F023F91CE07B6818683B6859683B6809
:10493C00DB681A4600F0BCF87B681B6840211846FF
:10494C0000F013F90CE07B681A683B681B68194689
:10495C00104600F00AF903E00123FB7300E000BFEE
:10496C007B68012283F83D207B68002283F83C2081
:10497C00FB7B18461037BD4680BD80B483B000AFBA
:10498C00786000BF0C37BD4680BC704780B483B0E4
:10499C0000AF786000BF0C37BD4680BC704780B458
:1049AC0083B000AF786000BF0C37BD4680BC704749
:1049BC0080B483B000AF786000BF0C37BD4680BCBC
:1049CC00704780B483B000AF786000BF0C37BD4631
:1049DC0080BC704780B485B000AF786039607B686C
:1049EC001B68FB607B682F4A93420BD07B68B3F14A
:1049FC00804F07D07B682C4A934203D07B682B4AAC
:104A0C00934208D1FB6823F07003FB603B685B6842
:104A1C00FA681343FB607B68224A93420BD07B6895
:104A2C00B3F1804F07D07B681F4A934203D07B6859
:104A3C001E4A934208D1FB6823F44073FB603B6829
:104A4C00DB68FA681343FB60FB6823F080023B6869
:104A5C005B691343FB607B68FA681A603B689A6871
:104A6C007B68DA623B681A687B689A627B680D4ADD
:104A7C00934203D13B681A697B681A637B680122F5
:104A8C005A617B681B6903F00103002B05D07B681E
:104A9C001B6923F001027B681A6100BF1437BD4605
:104AAC0080BC7047002C014000040040000800400E
:104ABC0080B487B000AFF860B9607A60FB681B6A9D
:104ACC007B61FB681B6A23F00102FB681A62FB68BE
:104ADC009B693B613B6923F0F0033B617B681B01E5
:104AEC003A6913433B617B6923F00A037B617A6962
:104AFC00BB6813437B61FB683A699A61FB687A690E
:104B0C001A6200BF1C37BD4680BC704780B487B0AA
:104B1C0000AFF860B9607A60FB681B6A7B61FB6868
:104B2C001B6A23F01002FB681A62FB689B693B61ED
:104B3C003B6923F470433B617B681B033A69134365
:104B4C003B617B6923F0A0037B61BB681B017A6925
:104B5C0013437B61FB683A699A61FB687A691A6254
:104B6C0000BF1C37BD4680BC704780B485B000AF19
:104B7C00786039607B689B68FB60FB6823F070038E
:104B8C00FB603A68FB68134343F00703FB607B68E8
:104B9C00FA689A6000BF1437BD4680BC704780B479
:104BAC0087B000AFF860B9607A603B60FB689B68C7
:104BBC007B617B6923F47F437B613B681A027B68D2
:104BCC001A43BB6813437A6913437B61FB687A69A8
:104BDC009A6000BF1C37BD4680BC704780B485B05E
:104BEC0000AF786039607B6893F83C30012B01D1C1
:104BFC00022346E07B68012283F83C207B6802227A
:104C0C0083F83D207B681B685B68FB607B681B68D6
:104C1C009B68BB60FB6823F07003FB603B681B6800
:104C2C00FA681343FB607B681B68FA685A607B6800
:104C3C001B68164A93420ED07B681B68B3F1804FF9
:104C4C0009D07B681B68124A934204D07B681B68AE
:104C5C00104A93420CD1BB6823F08003BB603B68C5
:104C6C005B68BA681343BB607B681B68BA689A6060
:104C7C007B68012283F83D207B68002283F83C206E
:104C8C00002318461437BD4680BC7047002C0140E9
:104C9C00000400400008004080B483B000AF78608E
:104CAC0000BF0C37BD4680BC704780B483B000AFEA
:104CBC00786000BF0C37BD4680BC704780B485B0AF
:104CCC0000AFF860384680E80E0000231846143711
:104CDC00BD4680BC704780B485B000AF78607B68FF
:104CEC000022A3F844204FF43F43FB60FB689AB2C8
:104CFC007B68A3F84020002318461437BD4680BCBF
:104D0C00704780B485B000AF78604FF43F43FB60D0
:104D1C007B68B3F840309AB2FB689BB2DB439BB222
:104D2C0013409AB27B68A3F840200023184614372E
:104D3C00BD4680BC704780B483B000AF78600B4632
:104D4C00FB70002318460C37BD4680BC704780B4FE
:104D5C0085B000AFF860384680E80E00FB68012291
:104D6C00A3F84020FB680022A3F84020FB68002237
:104D7C00A3F84420FB680022A3F850200023184617
:104D8C001437BD4680BC704780B49DB000AF7860CE
:104D9C003960002387F86F307A683B681B789B007A
:104DAC0013441B889BB223F4EC4323F07003A7F845
:104DBC006C303B68DB78032B1FD801A252F823F030
:104DCC00DD4D0008F94D00080F4E0008EB4D0008B2
:104DDC00B7F86C3043F40073A7F86C3012E0B7F8F6
:104DEC006C3043F4C063A7F86C300BE0B7F86C3050
:104DFC0043F48063A7F86C3004E0012387F86F302C
:104E0C0000E000BF7A683B681B789B001A44B7F837
:104E1C006C3043F07F4343F47F0343F4004343F08F
:104E2C0080039BB213807A683B681B789B00134409
:104E3C001B889BB223F4E04323F070039BB23A68C7
:104E4C0012781343A7F866307A683B681B789B008E
:104E5C001A44B7F8663043F07F4343F47F0343F4BE
:104E6C00004343F080039BB213803B681B7B002BF9
:104E7C0040F078813B685B78002B00F084807B6885
:104E8C00BB617B68B3F850309BB21A46BB691344C4
:104E9C00BB613B681B781A01BB69134403F5806343
:104EAC007B613B68DB885B089BB25B009AB27B69D9
:104EBC001A807A683B681B789B0013441B887B82A2
:104ECC007B8A03F04003002B1BD07A683B681B786D
:104EDC009B0013441B889BB223F4E04323F0700324
:104EEC003B827A683B681B789B001A443B8A43F0F0
:104EFC007F4343F47F0343F4004343F0C0039BB26E
:104F0C0013803B68DB78012B20D07A683B681B78D8
:104F1C009B0013441B889BB223F4E04323F0400313
:104F2C00BB81BB8983F02003BB817A683B681B780B
:104F3C009B001A44BB8943F07F4343F47F0343F443
:104F4C00004343F080039BB21380D5E27A683B6840
:104F5C001B789B0013441B889BB223F4E04323F083
:104F6C004003FB817A683B681B789B001A44FB89E1
:104F7C0043F07F4343F47F0343F4004343F0800347
:104F8C009BB21380B8E27B683B637B68B3F850300C
:104F9C009BB21A463B6B13443B633B681B781A016C
:104FAC003B6B134403F58163FB623B68DB885B0856
:104FBC009BB25B009AB2FB6A1A807B68BB627B680F
:104FCC00B3F850309BB21A46BB6A1344BB623B68C1
:104FDC001B781A01BB6A134403F20C437B627B6A95
:104FEC001B889BB2C3F309039AB27B6A1A803B6895
:104FFC001B693E2B1DD93B681B695B09BB663B6873
:10500C001B6903F01F03002B02D1BB6E013BBB6677
:10501C007B6A1B889AB2BB6E9BB29B029BB21343FA
:10502C009BB26FEA43436FEA53439AB27B6A1A808E
:10503C0026E03B681B69002B0AD17B6A1B889BB25C
:10504C006FEA43436FEA53439AB27B6A1A8017E0C4
:10505C003B681B695B08BB663B681B6903F001037B
:10506C00002B02D0BB6E0133BB667B6A1B889AB2E5
:10507C00BB6E9BB29B029BB213439AB27B6A1A80A3
:10508C007A683B681B789B0013441B887B847B8C61
:10509C0003F48043002B1BD07A683B681B789B0081
:1050AC0013441B889BB223F4E04323F070033B842E
:1050BC007A683B681B789B001A443B8C43F07F4317
:1050CC0043F47F0343F4404343F080039BB21380CB
:1050DC003B681B78002B24D17A683B681B789B00BB
:1050EC0013441B889BB223F4804323F07003BB83CF
:1050FC00BB8B83F48053BB83BB8B83F40053BB8388
:10510C007A683B681B789B001A44BB8B43F07F4347
:10511C0043F47F0343F4004343F080039BB21380BA
:10512C00EAE17A683B681B789B0013441B889BB2AE
:10513C0023F4804323F07003FB83FB8B83F4005335
:10514C00FB837A683B681B789B001A44FB8B43F00B
:10515C007F4343F47F0343F4004343F080039BB24B
:10516C001380C9E13B68DB78022B1ED17A683B685F
:10517C001B789B0013441B889BB223F4E04323F061
:10518C007003A7F862307A683B681B789B001A445E
:10519C00B7F8623043F07F4343F47F0343F4014399
:1051AC0043F080039BB213801DE07A683B681B7848
:1051BC009B0013441B889BB223F4E24323F070033F
:1051CC00A7F864307A683B681B789B001A44B7F8E0
:1051DC00643043F07F4343F47F0343F4004343F0D4
:1051EC0080039BB213807B68FB657B68B3F85030FF
:1051FC009BB21A46FB6D1344FB653B681B781A0186
:10520C00FB6D134403F58063BB653B681B895B082E
:10521C009BB25B009AB2BB6D1A807B687B657B6826
:10522C00B3F850309BB21A467B6D13447B653B68D8
:10523C001B781A017B6D134403F581633B653B6856
:10524C005B895B089BB25B009AB23B6D1A803B6832
:10525C005B78002B40F093807A683B681B789B004E
:10526C0013441B88A7F84030B7F8403003F4804350
:10527C00002B1BD07A683B681B789B0013441B885F
:10528C009BB223F4E04323F07003FB877A683B68FE
:10529C001B789B001A44FB8F43F07F4343F47F033E
:1052AC0043F4404343F080039BB213807A683B681D
:1052BC001B789B0013441B88BB87BB8F03F04003F8
:1052CC00002B1BD07A683B681B789B0013441B880F
:1052DC009BB223F4E04323F070037B877A683B682E
:1052EC001B789B001A447B8F43F07F4343F47F036E
:1052FC0043F4004343F0C0039BB213807A683B68CD
:10530C001B789B0013441B889BB223F4804323F02F
:10531C0070033B873B8F83F480533B873B8F83F435
:10532C0000533B877A683B681B789B001A443B8F81
:10533C0043F07F4343F47F0343F4004343F0800383
:10534C009BB213807A683B681B789B0013441B88C4
:10535C009BB223F4E04323F04003FB867A683B685E
:10536C001B789B001A44FB8E43F07F4343F47F036E
:10537C0043F4004343F080039BB21380BCE07A6893
:10538C003B681B789B0013441B88A7F84E30B7F87A
:10539C004E3003F48043002B1DD07A683B681B7899
:1053AC009B0013441B889BB223F4E04323F070034F
:1053BC00A7F84C307A683B681B789B001A44B7F806
:1053CC004C3043F07F4343F47F0343F4404343F0BA
:1053DC0080039BB213807A683B681B789B00134454
:1053EC001B88A7F84A30B7F84A3003F04003002B6B
:1053FC001DD07A683B681B789B0013441B889BB2BA
:10540C0023F4E04323F07003A7F848307A683B6834
:10541C001B789B001A44B7F8483043F07F4343F4A1
:10542C007F0343F4004343F0C0039BB213803B68FB
:10543C00DB78012B24D07A683B681B789B001344E3
:10544C001B889BB223F4E04323F04003A7F84430BD
:10545C00B7F8443083F02003A7F844307A683B68EF
:10546C001B789B001A44B7F8443043F07F4343F455
:10547C007F0343F4004343F080039BB213801DE091
:10548C007A683B681B789B0013441B889BB223F4FF
:10549C00E04323F04003A7F846307A683B681B785A
:1054AC009B001A44B7F8463043F07F4343F47F0324
:1054BC0043F4004343F080039BB213807A683B684B
:1054CC001B789B0013441B889BB223F4804323F06E
:1054DC007003A7F842307A683B681B789B001A442B
:1054EC00B7F8423043F07F4343F47F0343F4004367
:1054FC0043F080039BB2138097F86F3018467437D3
:10550C00BD4680BC704700BF80B48DB000AF7860E2
:10551C0039603B681B7B002B40F08E803B685B78CE
:10552C00002B44D07A683B681B789B0013441B8883
:10553C00BB81BB8903F04003002B1BD07A683B680E
:10554C001B789B0013441B889BB223F4E04323F08D
:10555C0070037B817A683B681B789B001A447B89BB
:10556C0043F07F4343F47F0343F4004343F0C00311
:10557C009BB213807A683B681B789B0013441B8892
:10558C009BB223F4E04323F040033B817A683B68F1
:10559C001B789B001A443B8943F07F4343F47F0301
:1055AC0043F4004343F080039BB2138092E17A688A
:1055BC003B681B789B0013441B887B827B8A03F41B
:1055CC008043002B1BD07A683B681B789B001344EC
:1055DC001B889BB223F4E04323F070033B827A6870
:1055EC003B681B789B001A443B8A43F07F4343F48F
:1055FC007F0343F4404343F080039BB213807A68EB
:10560C003B681B789B0013441B889BB223F480439C
:10561C0023F07003FB817A683B681B789B001A446B
:10562C00FB8943F07F4343F47F0343F4004343F08F
:10563C0080039BB213804DE13B685B78002B40F0FC
:10564C00A5807A683B681B789B0013441B883B84BD
:10565C003B8C03F48043002B1BD07A683B681B788F
:10566C009B0013441B889BB223F4E04323F070038C
:10567C00FB837A683B681B789B001A44FB8B43F0D6
:10568C007F4343F47F0343F4404343F080039BB2D6
:10569C0013807A683B681B789B0013441B88BB8380
:1056AC00BB8B03F04003002B1BD07A683B681B7844
:1056BC009B0013441B889BB223F4E04323F070033C
:1056CC007B837A683B681B789B001A447B8B43F086
:1056DC007F4343F47F0343F4004343F0C0039BB286
:1056EC0013807A683B681B789B0013441B889BB221
:1056FC0023F4E04323F070033B837A683B681B7808
:10570C009B001A443B8B43F07F4343F47F0343F4E9
:10571C00004343F0C0039BB213807A683B681B784C
:10572C009B0013441B889BB223F4804323F070032B
:10573C00FB827A683B681B789B001A44FB8A43F017
:10574C007F4343F47F0343F4004343F080039BB255
:10575C0013807A683B681B789B0013441B889BB2B0
:10576C0023F4E04323F04003BB827A683B681B7848
:10577C009B001A44BB8A43F07F4343F47F0343F4FA
:10578C00004343F080039BB21380A3E07A683B682C
:10579C001B789B0013441B88FB85FB8D03F4804313
:1057AC00002B1BD07A683B681B789B0013441B882A
:1057BC009BB223F4E04323F07003BB857A683B680B
:1057CC001B789B001A44BB8D43F07F4343F47F034B
:1057DC0043F4404343F080039BB213807A683B68E8
:1057EC001B789B0013441B887B857B8D03F0400347
:1057FC00002B1BD07A683B681B789B0013441B88DA
:10580C009BB223F4E04323F070033B857A683B683A
:10581C001B789B001A443B8D43F07F4343F47F037A
:10582C0043F4004343F0C0039BB213807A683B6897
:10583C001B789B0013441B889BB223F4E04323F09A
:10584C007003FB847A683B681B789B001A44FB8CC2
:10585C0043F07F4343F47F0343F4404343F080031E
:10586C009BB213807A683B681B789B0013441B889F
:10587C009BB223F4E04323F04003BB847A683B687B
:10588C001B789B001A44BB8C43F07F4343F47F038B
:10589C0043F4004343F080039BB213807A683B6867
:1058AC001B789B0013441B889BB223F4804323F08A
:1058BC0070037B847A683B681B789B001A447B8C52
:1058CC0043F07F4343F47F0343F4004343F08003EE
:1058DC009BB21380002318463437BD4680BC7047FA
:1058EC0080B5C2B000AF07F58473A3F5827318605E
:1058FC0007F58473A3F58473196007F58473A3F516
:10590C0084731B685B78012B40F0B78607F58473B2
:10591C00A3F584731B689A6907F58473A3F58473E4
:10592C001B681B699A4208D907F58473A3F5847325
:10593C001B681B69C7F8043107E007F58473A3F5EE
:10594C0084731B689B69C7F8043107F58473A3F54E
:10595C0084731B681B7B002B3AD107F58473A3F56A
:10596C0084731B68596907F58473A3F584731B68EA
:10597C00DA88D7F804319BB207F58470A0F58270F1
:10598C00006801F09CFC07F58473A3F582731B6817
:10599C003B6107F58473A3F582731B68B3F8503031
:1059AC009BB21A463B6913443B6107F58473A3F51C
:1059BC0084731B681B781A013B69134403F204437C
:1059CC00FB60D7F804319AB2FB681A8000F01FBE56
:1059DC0007F58473A3F584731B68DB78022B40F006
:1059EC00628407F58473A3F584731B681A6A07F540
:1059FC008473A3F584731B681B699A4240F2DF839E
:105A0C0007F58473A3F582731A6807F58473A3F5FD
:105A1C0084731B681B789B0013441B889BB223F474
:105A2C00E04323F07003A7F8563007F58473A3F511
:105A3C0082731A6807F58473A3F584731B681B784B
:105A4C009B001A44B7F8563043F07F4343F47F036E
:105A5C0043F4014343F080039BB2138007F5847336
:105A6C00A3F584731B681A6AD7F80431D21A07F5A8
:105A7C008473A3F584731B681A6207F58473A3F50A
:105A8C0082731A6807F58473A3F584731B681B78FB
:105A9C009B0013441B889BB203F04003002B00F0C7
:105AAC00C78107F58473A3F582731B683B6307F505
:105ABC008473A3F584731B685B78002B77D107F58F
:105ACC008473A3F582731B68BB6207F58473A3F51B
